:0200000007fff8
:0200010007fef8
:0200020007fdf8
:0200030007f9fb
:0200040007f5fe
:0200050007f002
:0200060007e908
:0200070007e10f
:0200080007d817
:0200090007cd21
:02000a0007c22b
:02000b0007b537
:02000c0007a744
:02000d00079852
:02000e00078762
:02000f00077672
:02001000076384
:02001100074f97
:02001200073aab
:020013000724c0
:02001400070dd6
:0200150006f5ee
:0200160006dc06
:0200170006c120
:0200180006a63a
:02001900068a55
:02001a00066c72
:02001b00064e8f
:02001c00062eae
:02001d00060ecd
:02001e0005edee
:02001f0005cb0f
:0200200005a732
:02002100058355
:02002200055f78
:0200230005399d
:020024000513c2
:0200250004ebea
:0200260004c311
:02002700049b38
:02002800047161
:0200290004478a
:02002a00041cb4
:02002b0003f1df
:02002c0003c50a
:02002d00039836
:02002e00036b62
:02002f00033e8e
:02003000030fbc
:0200310002e1ea
:0200320002b218
:02003300028247
:02003400025276
:020035000222a5
:0200360001f1d6
:0200370001c105
:02003800018f36
:02003900015e66
:02003a00012c97
:02003b0000fbc8
:02003c0000c9f9
:02003d0000972a
:02003e0000645c
:02003f0000328d
:020040000000be
:020041000fcee0
:020042000f9c11
:020043000f6943
:020044000f3774
:020045000f05a5
:020046000ed4d6
:020047000ea207
:020048000e7137
:020049000e3f68
:02004a000e0f97
:02004b000ddec8
:02004c000daef7
:02004d000d7e26
:02004e000d4e55
:02004f000d1f83
:020050000cf1b1
:020051000cc2df
:020052000c950b
:020053000c6837
:020054000c3b63
:020055000c0f8e
:020056000be4b9
:020057000bb9e3
:020058000b8f0c
:020059000b6535
:02005a000b3d5c
:02005b000b1583
:02005c000aedab
:02005d000ac7d0
:02005e000aa1f5
:02005f000a7d18
:020060000a593b
:020061000a355e
:020062000a137f
:0200630009f2a0
:0200640009d2bf
:0200650009b2de
:020066000994fb
:02006700097618
:02006800095a33
:02006900093f4d
:02006a00092467
:02006b00090b7f
:02006c0008f397
:02006d0008dcad
:02006e0008c6c2
:02006f0008b1d6
:02007000089de9
:02007100088afb
:0200720008790b
:0200730008681b
:02007400085929
:02007500084b36
:02007600083e42
:0200770008334c
:02007800082856
:02007900081f5e
:02007a00081765
:02007b0008106b
:02007c00080b6f
:02007d00080772
:02007e00080375
:02007f00080275
:02008000080175
:02008100080273
:02008200080371
:0200830008076c
:02008400080b67
:02008500081061
:02008600081759
:02008700081f50
:02008800082846
:0200890008333a
:02008a00083e2e
:02008b00084b20
:02008c00085911
:02008d00086801
:02008e000879ef
:02008f00088add
:02009000089dc9
:0200910008b1b4
:0200920008c69e
:0200930008dc87
:0200940008f36f
:02009500090b55
:0200960009243b
:02009700093f1f
:02009800095a03
:020099000976e6
:02009a000994c7
:02009b0009b2a8
:02009c0009d287
:02009d0009f266
:02009e000a1343
:02009f000a3520
:0200a0000a59fb
:0200a1000a7dd6
:0200a2000aa1b1
:0200a3000ac78a
:0200a4000aed63
:0200a5000b1539
:0200a6000b3d10
:0200a7000b65e7
:0200a8000b8fbc
:0200a9000bb991
:0200aa000be465
:0200ab000c0f38
:0200ac000c3b0b
:0200ad000c68dd
:0200ae000c95af
:0200af000cc281
:0200b0000cf151
:0200b1000d1f21
:0200b2000d4ef1
:0200b3000d7ec0
:0200b4000dae8f
:0200b5000dde5e
:0200b6000e0f2b
:0200b7000e3ffa
:0200b8000e71c7
:0200b9000ea295
:0200ba000ed462
:0200bb000f052f
:0200bc000f37fc
:0200bd000f69c9
:0200be000f9c95
:0200bf000fce62
:0200c00000003e
:0200c10000320b
:0200c2000064d8
:0200c3000097a4
:0200c40000c971
:0200c50000fb3e
:0200c600012c0b
:0200c700015ed8
:0200c800018fa6
:0200c90001c173
:0200ca0001f142
:0200cb0002220f
:0200cc000252de
:0200cd000282ad
:0200ce0002b27c
:0200cf0002e14c
:0200d000030f1c
:0200d100033eec
:0200d200036bbe
:0200d300039890
:0200d40003c562
:0200d50003f135
:0200d600041c08
:0200d7000447dc
:0200d8000471b1
:0200d900049b86
:0200da0004c35d
:0200db0004eb34
:0200dc0005130a
:0200dd000539e3
:0200de00055fbc
:0200df00058397
:0200e00005a772
:0200e10005cb4d
:0200e20005ed2a
:0200e300060e07
:0200e400062ee6
:0200e500064ec5
:0200e600066ca6
:0200e700068a87
:0200e80006a66a
:0200e90006c14e
:0200ea0006dc32
:0200eb0006f518
:0200ec00070dfe
:0200ed000724e6
:0200ee00073acf
:0200ef00074fb9
:0200f0000763a4
:0200f100077690
:0200f20007877e
:0200f30007986c
:0200f40007a75c
:0200f50007b54d
:0200f60007c23f
:0200f70007cd33
:0200f80007d827
:0200f90007e11d
:0200fa0007e914
:0200fb0007f00c
:0200fc0007f506
:0200fd0007f901
:0200fe0007fdfc
:0200ff0007fefa
:00000001FF
