:0200000007fff8
:0200010007fff7
:0200020007fff6
:0200030007fff5
:0200040007fff4
:0200050007fff3
:0200060007fff2
:0200070007fff1
:0200080007fff0
:0200090007ffef
:02000a0007ffee
:02000b0007ffed
:02000c0007ffec
:02000d0007ffeb
:02000e0007ffea
:02000f0007ffe9
:0200100007ffe8
:0200110007ffe7
:0200120007ffe6
:0200130007ffe5
:0200140007ffe4
:0200150007ffe3
:0200160007ffe2
:0200170007ffe1
:0200180007ffe0
:0200190007ffdf
:02001a0007ffde
:02001b0007ffdd
:02001c0007ffdc
:02001d0007ffdb
:02001e0007ffda
:02001f0007ffd9
:0200200007ffd8
:0200210007ffd7
:0200220007ffd6
:0200230007ffd5
:0200240007ffd4
:0200250007ffd3
:0200260007ffd2
:0200270007ffd1
:0200280007ffd0
:0200290007ffcf
:02002a0007ffce
:02002b0007ffcd
:02002c0007ffcc
:02002d0007ffcb
:02002e0007ffca
:02002f0007ffc9
:0200300007ffc8
:0200310007ffc7
:0200320007ffc6
:0200330007ffc5
:0200340007ffc4
:0200350007ffc3
:0200360007ffc2
:0200370007ffc1
:0200380007ffc0
:0200390007ffbf
:02003a0007ffbe
:02003b0007ffbd
:02003c0007ffbc
:02003d0007ffbb
:02003e0007ffba
:02003f0007ffb9
:0200400007ffb8
:0200410007ffb7
:0200420007ffb6
:0200430007ffb5
:0200440007ffb4
:0200450007ffb3
:0200460007ffb2
:0200470007ffb1
:0200480007ffb0
:0200490007ffaf
:02004a0007ffae
:02004b0007ffad
:02004c0007ffac
:02004d0007ffab
:02004e0007ffaa
:02004f0007ffa9
:0200500007ffa8
:0200510007ffa7
:0200520007ffa6
:0200530007ffa5
:0200540007ffa4
:0200550007ffa3
:0200560007ffa2
:0200570007ffa1
:0200580007ffa0
:0200590007ff9f
:02005a0007ff9e
:02005b0007ff9d
:02005c0007ff9c
:02005d0007ff9b
:02005e0007ff9a
:02005f0007ff99
:0200600007ff98
:0200610007ff97
:0200620007ff96
:0200630007ff95
:0200640007ff94
:0200650007ff93
:0200660007ff92
:0200670007ff91
:0200680007ff90
:0200690007ff8f
:02006a0007ff8e
:02006b0007ff8d
:02006c0007ff8c
:02006d0007ff8b
:02006e0007ff8a
:02006f0007ff89
:0200700007ff88
:0200710007ff87
:0200720007ff86
:0200730007ff85
:0200740007ff84
:0200750007ff83
:0200760007ff82
:0200770007ff81
:0200780007ff80
:0200790007ff7f
:02007a0007ff7e
:02007b0007ff7d
:02007c0007ff7c
:02007d0007ff7b
:02007e0007ff7a
:02007f0007ff79
:0200800007ff78
:0200810007ff77
:0200820007ff76
:0200830007ff75
:0200840007ff74
:0200850007ff73
:0200860007ff72
:0200870007ff71
:0200880007ff70
:0200890007ff6f
:02008a0007ff6e
:02008b0007ff6d
:02008c0007ff6c
:02008d0007ff6b
:02008e0007ff6a
:02008f0007ff69
:0200900007ff68
:0200910007ff67
:0200920007ff66
:0200930007ff65
:0200940007ff64
:0200950007ff63
:0200960007ff62
:0200970007ff61
:0200980007ff60
:0200990007ff5f
:02009a0007ff5e
:02009b0007ff5d
:02009c0007ff5c
:02009d0007ff5b
:02009e0007ff5a
:02009f0007ff59
:0200a00007ff58
:0200a10007ff57
:0200a20007ff56
:0200a30007ff55
:0200a40007ff54
:0200a50007ff53
:0200a60007ff52
:0200a70007ff51
:0200a80007ff50
:0200a90007ff4f
:0200aa0007ff4e
:0200ab0007ff4d
:0200ac0007ff4c
:0200ad0007ff4b
:0200ae0007ff4a
:0200af0007ff49
:0200b00007ff48
:0200b10007ff47
:0200b20007ff46
:0200b30007ff45
:0200b40007ff44
:0200b50007ff43
:0200b60007ff42
:0200b70007ff41
:0200b80007ff40
:0200b90007ff3f
:0200ba0007ff3e
:0200bb0007ff3d
:0200bc0007ff3c
:0200bd0007ff3b
:0200be0007ff3a
:0200bf0007ff39
:0200c00007ff38
:0200c10007ff37
:0200c20007ff36
:0200c30007ff35
:0200c40007ff34
:0200c50007ff33
:0200c60007ff32
:0200c70007ff31
:0200c80007ff30
:0200c90007ff2f
:0200ca0007ff2e
:0200cb0007ff2d
:0200cc0007ff2c
:0200cd0007ff2b
:0200ce0007ff2a
:0200cf0007ff29
:0200d00007ff28
:0200d10007ff27
:0200d20007ff26
:0200d30007ff25
:0200d40007ff24
:0200d50007ff23
:0200d60007ff22
:0200d70007ff21
:0200d80007ff20
:0200d90007ff1f
:0200da0007ff1e
:0200db0007ff1d
:0200dc0007ff1c
:0200dd0007ff1b
:0200de0007ff1a
:0200df0007ff19
:0200e00007ff18
:0200e10007ff17
:0200e20007ff16
:0200e30007ff15
:0200e40007ff14
:0200e50007ff13
:0200e60007ff12
:0200e70007fe12
:0200e80007fe11
:0200e90007fe10
:0200ea0007fe0f
:0200eb0007fe0e
:0200ec0007fe0d
:0200ed0007fe0c
:0200ee0007fe0b
:0200ef0007fe0a
:0200f00007fe09
:0200f10007fe08
:0200f20007fe07
:0200f30007fe06
:0200f40007fe05
:0200f50007fe04
:0200f60007fe03
:0200f70007fe02
:0200f80007fe01
:0200f90007fe00
:0200fa0007feff
:0200fb0007fefe
:0200fc0007fefd
:0200fd0007fefc
:0200fe0007fefb
:0200ff0007fefa
:00000001FF
